:020000000C945E
:100002002A000C9400000C9400000C9400000C9444
:1000120000000C9400000C9400000C9400000C945E
:1000220000000C9400000C9400000C9400000C944E
:1000320000000C9400000C9400000C9400000C943E
:1000420000000C9400000C9400000C9400000C942E
:100052000000F894EE27ECBBF1E0FBBFEBBFE5BF7D
:100062008DE0A2E0BB27ED938A95E9F780E098E066
:10007200A0E6ED930197E9F7EFE5EDBFE8E0EEBF0B
:10008200C0E6D2E00C944500EFEFE4BBDA9A22D04E
:10009200AA9820D0AB9A1ED0AB981CD0AE9A1AD098
:1000A200AE9818D0AD9A16D0AD9814D0AC9A12D0A2
:1000B200AC9810D0A99A0ED0A9980CD0A89A0AD0C0
:1000C200A89808D0EFEFE5BB05D0E0E0E5BB02D091
:1000D200DDCFFFCFA4EFB1E00C946F00109639F0A2
:1000E2008AEF90E00197F1F7A8951197C9F7089563
:00000001FF
